:020000040800F2
:1000000000500020D5050008D1050008CF050008E4
:10001000CF050008CF050008CF050008000000004C
:10002000000000000000000000000000D1050008F2
:10003000D105000800000000D1050008D105000826
:10004000CF050008CF050008CF050008CF05000840
:10005000CF050008CF050008CF050008CF05000830
:10006000CF050008CF050008CF050008CF05000820
:10007000CF050008CF050008CF050008CF05000810
:10008000CF050008CF050008CF050008CF05000800
:10009000CF050008CF050008CF050008CF050008F0
:1000A000CF050008CF050008CF050008CF050008E0
:1000B000CF050008CF050008CF050008CF050008D0
:1000C000CF050008CF050008CF050008CF050008C0
:1000D000CF050008CF050008CF050008CF050008B0
:1000E000CF050008CF050008CF050008CF050008A0
:1000F000CF050008CF050008CF050008CF05000890
:10010000CF050008CF050008CF050008CF0500087F
:10011000CF050008CF050008CF050008CF0500086F
:10012000CF050008CF050008CF050008CF0500085F
:10013000CF050008CF050008CF050008CF0500084F
:10014000CF050008CF050008CF050008CF0500083F
:1001500080B500AF4FF4007302220321104800F075
:10016000A9F84FF416510F4800F0E4F908210D48A2
:1001700000F0F4F900210B4800F0F9F908210948D2
:1001800000F001FA0021074800F0F7F900210548C6
:1001900000F0FFF9034800F002FA00BF80BD00BF85
:1001A000000801400038014080B582B000AF78609F
:1001B00009E07B681B789BB21946074800F0F4F908
:1001C0007B6801337B607B681B78002BF1D100BF1B
:1001D00000BF0837BD4680BD0038014080B582B001
:1001E00000AF78607868FFF7DFFF0348FFF7DCFFB8
:1001F00000BF0837BD4680BD7806000880B500AF57
:1002000000F044F940F2023000F086F940F20E307E
:1002100000F082F940F2033000F07EF940F29530B0
:1002200000F07AF900BF80BD80B500AF4FF40063E5
:1002300000220221024800F03DF800BF80BD00BF4F
:100240000008014080B582B000AFFFF7D7FFFFF78D
:10025000EBFFFFF77DFF1348FFF7C0FF4FF400618E
:10026000114800F056F800237B6003E000BF7B6874
:1002700001337B607B680D4A9342F7DD0C48FFF742
:10028000ADFF4FF40061084800F045F800237B60A3
:1002900003E000BF7B6801337B607B68034A9342C5
:1002A000F7DDD8E77C060008000801405FE3160090
:1002B000840600082DE9F0414FF00F0C0025076877
:1002C000466843FA05F4E4071CD5072D94BFBE46E3
:1002D000B646ACB24FEA84048ABF203CA4B2A4B2B2
:1002E0000CFA04F82EEA080804F1020E02FA0EFED7
:1002F00001FA04F44EEA040444EA0804072D94BF0A
:10030000274626460135102DDBD107604660BDE843
:10031000F08101617047090401617047024A136866
:1003200043F080731360704700100240062822D803
:10033000DFE800F004090E13181D1F000F4B1868AA
:10034000C0F3406070470D4B1868C0F3C060704741
:100350000A4B1868C0F340707047084B1868C0F328
:1003600040407047054B1868C0F340007047044B8D
:10037000F9E7044BF7E70020704700BF0010024088
:100380002010024024100240024608B51046FFF734
:10039000CDFF0028FAD008BD06280CD8DFE800F011
:1003A00004060C11161B1D00FFF7B8BF0C4A13689A
:1003B00043F0806313607047094A136843F0805329
:1003C000F8E7074A136843F48033F3E7044A1368F5
:1003D00043F00103EEE7034AF9E7034AF7E700BFFA
:1003E000001002402010024024100240034A13680B
:1003F00023F0030303431360704700BF041002405F
:10040000034A136823F4701343EA80431360704770
:1004100004100240034A136823F4803343EA004384
:100420001360704704100240034A136823F400333A
:1004300043EA40431360704704100240034A1368C4
:1004400023F4404343EA80331360704704100240B2
:10045000034A136823F4605343EAC02313607047D0
:1004600004100240034A136823F4E06343EA0023C4
:100470001360704704100240034A136823F0F0032E
:1004800043EA0013136070470410024008B50420CB
:10049000FFF782FF0420FFF777FF0020FFF7A6FF9A
:1004A0000320FFF779FF0320FFF76EFF0120FFF71E
:1004B0009DFF0020FFF7E0FF0320FFF7BFFF0420B0
:1004C000FFF7D0FF0020FFF7C3FF022000F0CAF8BB
:1004D0000720FFF795FF0120FFF79CFF0020FFF7A3
:1004E000A3FFFFF71BFF0020FFF74EFF0220FFF7DF
:1004F0007DFF044B044A05491360054A1160054A13
:10050000136008BD00A24A0400000020005125022B
:1005100004000020080000200122430903F1804369
:1005200003F50433196800F01F0002FA00F00843D5
:1005300018607047064A074B90421B6804BF064B81
:100540001B6803EB5103B3FBF1F18160704700BFFF
:10055000003801400400002008000020C36808297A
:100560000CBF23F4805343F48053C3607047036986
:1005700023F440530B4303617047C36823F4C06303
:100580000B43C3607047C36823F00C030B43C36085
:100590007047436923F440730B4343617047C3685A
:1005A00043F40053C360704738B504460D4600F06D
:1005B0000AF829462046BDE8384000F000B8C1F3EB
:1005C00008014160704703681B06FCD57047FEE7D1
:1005D0007047000038B5184A184B19498B4217D399
:1005E0000021184A934218D3174A184C1368184D23
:1005F00043F400731360AC4212D3164C164DAC4258
:1006000012D3FFF71FFE154C154DAC4210D338BD69
:1006100052F8040B43F8040BE0E743F8041BE1E74E
:1006200054F8043B9847E6E754F8043B9847E6E75C
:1006300054F8043B9847E8E78C06000800000020C7
:100640000C0000200C00002014ED00E08C060008D7
:100650008C0600088C0600088C0600088C06000832
:100660008C060008034A136823F007030343136052
:10067000704700BF002002400D0A00006C65642036
:0C0680006F6E00004C4544206F66660061
:0C068C0000127A0000127A0000127A00BE
:04000005080005D515
:00000001FF
