:020000040800F2
:1000000000500020710500086D0500086B05000810
:100010006B0500086B0500086B0500080000000078
:100020000000000000000000000000006D05000856
:100030006D050008000000006D0500086D05000852
:100040006B0500086B0500086B0500086B050008D0
:100050006B0500086B0500086B0500086B050008C0
:100060006B0500086B0500086B0500086B050008B0
:100070006B0500086B0500086B0500086B050008A0
:100080006B0500086B0500086B0500086B05000890
:100090006B0500086B0500086B0500086B05000880
:1000A0006B0500086B0500086B0500086B05000870
:1000B0006B0500086B0500086B0500086B05000860
:1000C0006B0500086B0500086B0500086B05000850
:1000D0006B0500086B0500086B0500086B05000840
:1000E0006B0500086B0500086B0500086B05000830
:1000F0006B0500086B0500086B0500086B05000820
:100100006B0500086B0500086B0500086B0500080F
:100110006B0500086B0500086B0500086B050008FF
:100120006B0500086B0500086B0500086B050008EF
:100130006B0500086B0500086B0500086B050008DF
:100140006B0500086B0500086B0500086B050008CF
:1001500010B5134C4FF4007302220321114800F034
:1001600077F820464FF4165100F0B2F920460821E6
:1001700000F0C2F92046002100F0C7F9204608210E
:1001800000F0CFF92046002100F0C5F920460021FB
:1001900000F0CDF92046BDE8104000F0CEB900BF18
:1001A000003801400008014038B5054D441E14F8E0
:1001B000011F01B938BD284600F0C4F9F7E700BFB8
:1001C0000038014008B5FFF7EFFFBDE808400148DF
:1001D000FFF7EABF1406000838B500F025F940F231
:1001E000023000F067F940F2033000F063F94FF499
:1001F000417000F05FF94FF40063002202211048C3
:1002000000F026F8FFF7A4FF0E4D0D4C2846FFF72F
:10021000D9FF4FF40061204600F049F80A4B00BFB7
:10022000013BFCD10948FFF7CDFF4FF400612046A8
:1002300000F03FF8044B00BF013BFCD1E6E700BFF4
:10024000000801401706000860E316001E060008BB
:100250002DE9F0414FF00F0C00250768466843FA7E
:1002600005F4E4071CD5072D94BFBE46B646ACB2D4
:100270004FEA84048ABF203CA4B2A4B20CFA04F86A
:100280002EEA080804F1020E02FA0EFE01FA04F446
:100290004EEA040444EA0804072D94BF2746264684
:1002A0000135102DDBD107604660BDE8F0810161AA
:1002B0007047090401617047024A136843F0807374
:1002C0001360704700100240062822D8DFE800F0D3
:1002D00004090E13181D1F000F4B1868C0F340606F
:1002E00070470D4B1868C0F3C06070470A4B186820
:1002F000C0F340707047084B1868C0F34040704727
:10030000054B1868C0F340007047044BF9E7044BF5
:10031000F7E70020704700BF0010024020100240A5
:1003200024100240024608B51046FFF7CDFF002812
:10033000FAD008BD06280CD8DFE800F004060C113E
:10034000161B1D00FFF7B8BF0C4A136843F080630B
:1003500013607047094A136843F08053F8E7074A6F
:10036000136843F48033F3E7044A136843F001034E
:10037000EEE7034AF9E7034AF7E700BF001002403F
:100380002010024024100240034A136823F00303A4
:1003900003431360704700BF04100240034A136810
:1003A00023F4701343EA8043136070470410024043
:1003B000034A136823F4803343EA00431360704711
:1003C00004100240034A136823F4003343EA404315
:1003D0001360704704100240034A136823F440433B
:1003E00043EA80331360704704100240034A1368E5
:1003F00023F4605343EAC0231360704704100240A3
:10040000034A136823F4E06343EA00231360704750
:1004100004100240034A136823F0F00343EA001378
:10042000136070470410024008B50420FFF782FFF4
:100430000420FFF777FF0020FFF7A6FF0320FFF758
:1004400079FF0320FFF76EFF0120FFF79DFF0020DB
:10045000FFF7E0FF0320FFF7BFFF0420FFF7D0FF07
:100460000020FFF7C3FF022000F0CAF80720FFF7C3
:1004700095FF0120FFF79CFF0020FFF7A3FFFFF788
:100480001BFF0020FFF74EFF0220FFF77DFF044B0C
:10049000044A05491360054A1160054A136008BD06
:1004A00000A24A04000000200051250204000020A0
:1004B000080000200122430903F1804303F50433BF
:1004C000196800F01F0002FA00F008431860704736
:1004D000064A074B90421B6804BF064B1B6803EBA0
:1004E0005103B3FBF1F18160704700BF0038014058
:1004F0000400002008000020C36808290CBF23F472
:10050000805343F48053C3607047036923F440531E
:100510000B4303617047C36823F4C0630B43C3609C
:100520007047C36823F00C030B43C36070474369F3
:1005300023F440730B4343617047C36843F4005393
:10054000C360704738B504460D4600F00AF82946E6
:100550002046BDE8384000F000B8C1F30801416012
:10056000704703681B06FCD57047FEE77047000024
:1005700038B5184A184B19498B4217D30021184A2D
:10058000934218D3174A184C1368184D43F400735C
:100590001360AC4212D3164C164DAC4212D3FFF787
:1005A0001BFE154C154DAC4210D338BD52F8040B50
:1005B00043F8040BE0E743F8041BE1E754F8043B7D
:1005C0009847E6E754F8043B9847E6E754F8043BBD
:1005D0009847E8E728060008000000200C000020EB
:1005E0000C00002014ED00E0280600082806000892
:1005F0002806000828060008280600082806000823
:10060000034A136823F0070303431360704700BFD6
:10061000002002400D0A006C6564206F6E004C459E
:0806200044206F666600000033
:0C06280000127A0000127A0000127A0022
:040000050800057179
:00000001FF
